:020000040000FA
:1000000038030010E1000000E5000000E7000000F8
:10001000E9000000EB000000ED000000000000001F
:10002000000000000000000000000000EF000000E1
:10003000F100000000000000F3000000F5000000E7
:10004000F7000000F7000000F7000000F7000000D4
:10005000F70000009D13000075140000F700000079
:10006000F7000000F7000000F7000000F7000000B4
:10007000F7000000F7000000F7000000F7000000A4
:10008000F7000000F7000000F7000000F700000094
:10009000F7000000F7000000F7000000F700000084
:1000A000D30C0000F7000000F7000000F70000008C
:1000B000F7000000F7000000F7000000F700000064
:1000C000F7000000F7000000F7000000DFF80CD098
:1000D00001F0B2FD00480047131000003803001083
:1000E00005480047FEE7FEE7FEE7FEE7FEE7FEE71E
:1000F000FEE7FEE7FEE7FEE7CD00000010B500F0EA
:1001000033FA10BD10B52C480078F8B100F09CFE11
:100110002A48007868B105222949812000F0A4FD11
:100120002648007808B9012000E000202349087023
:100130000CE009222349812000F096FD1F48007839
:1001400008B9012000E000201C49087010BD10B55E
:100150000446032C20D100F077FE1848007868B1DF
:1001600005221749812000F07FFD1448007808B966
:10017000012000E00020114908700CE0092211491B
:10018000812000F071FD0D48007808B9012000E0E1
:1001900000200A49087000BF00BF10BD70477047BB
:1001A0007047704770477047704770477047704797
:1001B000704770477047704707000010300000100C
:1001C000890000108000001010B52348C078012875
:1001D00004D0022805D0032807D104E000F034FE43
:1001E00003E0002010BD0020FCE700BF0120F9E77C
:1001F00010B51948C078012804D0022804D003287B
:100200000BD108E0002010BD144800781449087094
:1002100000F0E2FE01E00020F5E700BF0120F2E778
:100220000D4880780F49085C0C4908700120704720
:100230000948C078084989780A4A50540120704713
:100240000948007805490870012070470248807805
:1002500005490870012070472800001016000010A2
:1002600065000010320000103100001080EA010229
:1002700010B502F00043400026D04A0023D04FEAD8
:10028000106101EB1261C0F35600C2F3560240F454
:10029000000042F40002A0FB0220A1F17F014FEA1E
:1002A0000040140401D000F1010050EA124001D4D2
:1002B0004000491EC2B20C0604EBD010401C40089E
:1002C000802A02D003E0002010BD20F001000029A8
:1002D00000DA0020184310BD0EB5C10F80EAE070AF
:1002E0000844CA07002140F233438DE80E000A4655
:1002F0000B4601F04FFC03B000BD7047FFFFFFFF4E
:1003000020208649086000BF8448006810F0400F34
:10031000FAD00320824908604FF000008149C1F8FB
:10032000A801814908604FF00100804908608048B9
:10033000804908604FF00100A1F1040108604FF00E
:10034000AA007D4908604FF055007649C1F88C003D
:1003500000BF7A48006810F0806FFAD00320784917
:1003600008604FF0AA006F49C1F88C004FF05500AB
:10037000714908604FF02300724908604FF0010096
:10038000A1F1040108604FF0AA006F4908604FF026
:100390005500086000BF6D48006810F4806FFAD007
:1003A00003206B4908604FF0AA005E49C1F8AC0019
:1003B0004FF05500644908606648674908604FF08F
:1003C00000005849C1F8C8010846D0F88800C0F3B9
:1003D0000160032868D15548006810F0030006D07A
:1003E000012823D002283FD003285CD100E000BFC1
:1003F00052480068C0F30E0000F101004FEA4000CF
:10040000564900FB01F04749D1F88810C1F3074174
:1004100001F10101B0FBF1F141480068C0B200F107
:100420000100B1FBF0F04E4908603CE04348006831
:10043000C0F30E0000F101004FEA4000494900FB03
:1004400001F03849D1F88810C1F3074101F10101E9
:10045000B0FBF1F132480068C0B200F10100B1FB1D
:10046000F0F03F4908601EE034480068C0F30E0019
:1004700000F101004FEA40004FF4FA4100FB01F0A7
:100480002849D1F88810C1F3074101F10101B0FBFF
:10049000F1F123480068C0B200F10100B1FBF0F0B7
:1004A0002F49086000BF2FE02048006810F00300CB
:1004B00006D0012810D0022819D0032823D100E04B
:1004C00000BF17480068C0B200F101002349B1FB2A
:1004D000F0F02349086016E011480068C0B200F14E
:1004E00001002049B1FBF0F01D4908600BE00C4809
:1004F0000068C0B200F101004FF4FA41B1FBF0F026
:100500001749086000BF00BF0648006820F470402B
:1005100040F480400349086070470000A0C10F40CC
:1005200004C10F4000C00F40ACC10F400CC10F40D0
:100530006300050084C00F408CC00F4088C00F408E
:1005400080C00F40A4C00F40ACC00F40A8C00F40F7
:10055000A0C00F40DE872804C4C00F4000093D0042
:1005600000000010001BB7000020DB490880DB49B9
:100570000870DB4908704FF00110DA49086000206C
:10058000D9490860D9490860704710B5D84900209A
:1005900000F03AFB10BD10B5D6488088082801DD70
:1005A000082401E0D3488488D2482246016880208C
:1005B00000F05AFB0446CF4800682044CD4908604B
:1005C00008468088001B888010BD10B5C9480168A6
:1005D000002000F019FB0446C64800682044C549C5
:1005E000086008468088001B888010BD10B5002276
:1005F0001146802000F038FB10BD10B5BE49002028
:1006000000F002FB10BD10B50446082C6FD2DFE8E5
:1006100004F06E04F0EF6E6EEEEDFFF7B6FFB44936
:100620000978C80900F0A7FAB148C088B1498880A4
:10063000AF480078C0F3411010B101287BD192E09F
:10064000AB4840780C2877D2DFE800F0060D8A1519
:100650008A1D333A41555E8301F082FB00B9D7E031
:10066000FFF799FF7DE0002001F0DAFB00B9CFE051
:10067000FFF7BCFF75E0012001F0D2FB00B9C7E035
:10068000FFF7B4FF6DE000BF9948007810F01F0F2E
:1006900006D19748807840F080009049087001E0CA
:1006A000002001E000BF012000B9B1E0FFF79EFF8C
:1006B00057E001F0D3FA00B9AAE0FFF76CFF50E071
:1006C000002000F080FA00208A49888049E000BFBD
:1006D0008748007810F01F0F03D1814885490860D2
:1006E00001E0002001E000BF012008B990E0F1E046
:1006F000FFF751FF35E001F009FC00B988E0FFF792
:1007000075FFFFF7FFFC2CE000BF7948007800F090
:100710001F00012814D17248007870B17448007924
:1007200076490978884208DA7148007974490844A2
:100730007049086003E06AE012E0002004E001E094
:10074000002001E000BF012000B961E0FFF723FFB6
:1007500007E001F0B5FC00B95AE0FFF747FF00E001
:1007600056E000BF5BE06248007810F01F0004D044
:10077000012803D0022848D146E049E05C480079CE
:1007800098BB5B4840780C283CD2DFE800F03B0681
:1007900014253B3B3B3B3B101E34FFF715FD28B1B6
:1007A000554854490860FFF7F6FE2FE02AE052480A
:1007B000504908602AE0FFF733FD28B14E484D4903
:1007C0000860FFF7E8FE21E01CE0FFF731FD10B103
:1007D000FFF70CFF1AE015E0FFF732FD50B1464875
:1007E00044490860FFF7D7FE10E00CE06EE069E0D6
:1007F0004FE016E006E0FFF729FD10B1FFF7F6FE27
:1008000004E000BF00BF03E002E001E007E000BF3A
:10081000802000F0D8F900203649888000BF00BF52
:1008200058E033480078C00930D13248808860B33E
:10083000FFF7CBFE2F48808838BB2D480078C0F3E7
:10084000411010B101281FD100E0E1E728480078ED
:1008500010F01F0004D0012803D0022812D110E0AC
:10086000D6E72348007958B921484078092806D1AD
:10087000FFF7BEFC10B1FFF7B9FE04E000BF00BFF8
:10088000C6E7C5E7C4E700E0C2E701E0FFF7B5FE51
:1008900020E0174800780121B1EBD01F02D1FFF70B
:1008A0007AFE0EE00D48007810F0800F09D00B485A
:1008B000007800F07F00094908700846007800F0D1
:1008C00082F807E0002000F08BF903E0802000F0C0
:1008D00087F900BF00BF10BD040000100600001023
:1008E00007000010080000100C000010100000109D
:1008F0002800001020000010160000101400001046
:100900001500001001460A07D00E11F0800F00D02C
:10091000401C70471021FE4A1160FE49C1F81002C8
:1009200000BFFD49096811F0100FFAD0704710227E
:10093000F74B1A60F74AC2F8100200BFF64A126875
:1009400012F0100FFAD01022F14B1A60F14AC2F8DF
:10095000101200BFF04A126812F0100FFAD0704760
:1009600010B504460B461020E94908602046FFF701
:10097000C9FF4FF4A06141EA0040E649C1F8100206
:1009800000BFE548006810F0100FFAD01020E049D1
:100990000860E048C0F8103200BFDF48006810F07F
:1009A000100FFAD010BD01463020D94A1060D94846
:1009B000C0F8101200BFD848006810F0200FFAD01D
:1009C000D6480068704710B5044644F080004FF4E4
:1009D000807242EA0041D248FFF7A9FF44F080004C
:1009E0004FF4807242EA0041CD48FFF7A0FF10BDEE
:1009F0000020CC4908604FF00800C649C1F84C02FD
:100A00004FF00100C74908604FF00800C149C1F824
:100A10004C0200BFC048006810F4807FFAD04FF04D
:100A2000FF30C1490860BB49C1F83402B8490860C9
:100A30004FF00C00B749C1F80402704700B5BB483D
:100A4000406820F07050B94948600846406840F05E
:100A5000A05048600846C068B5490840B349C8601E
:100A60000846C068B3490843B049C86008460069F1
:100A700020F4402008610846006940F480200861A5
:100A8000AD48006840F00040AC49C1F8C4004FF0E8
:100A90001A00AB49086000BFAA48006800F01A00BD
:100AA0001A28F9D118200121814042094FF0E02392
:100AB00003EB8202C2F8001100BFFFF799FF00208C
:100AC000FFF781FF00BD10B504460CB1012000E026
:100AD00000204FF4807242EA00419B48FFF727FF55
:100AE00010BD7047704700B59848007810F0020FAD
:100AF00003D097499448FFF71AFF00BD704710B51F
:100B000004460CB1012000E000204FF4807242EA5C
:100B100000419048FFF70BFF03208F49086000BF9A
:100B20007D48006810F4807FFAD04FF480707849D7
:100B3000086010BD10B503469878FFF7E3FE044641
:100B4000854800684FF0010101FA04F140EA010014
:100B50007049C1F84402734804609888C1F84C0297
:100B600000BF6D48006810F4807FFAD04FF48070A9
:100B70006749086010BD704730B504462046FFF74E
:100B8000C1FE764941EA004589132846FFF7CFFEAA
:100B900030BD30B504462046FFF7B4FE6F4941EA48
:100BA00000456F492846FFF7C2FE30BD30B5044608
:100BB0002046FFF7A7FE694941EA00458913284608
:100BC000FFF7B5FE30BD30B504462046FFF79AFE6C
:100BD000624941EA00455E492846FFF7A8FE30BD5C
:100BE00030B504462046FFF78DFE5C4941EA0045DA
:100BF00089132846FFF79BFE30BD10B504465949BE
:100C00002046FFF7ADFE10BDF0B505460E4605F0D7
:100C10000F00012101EB80005349086000BF5348D9
:100C2000046814F4006FFAD0C4F30904002705E047
:100C30003848D0F818023060361D7F1CE01CB7EB36
:100C4000900FF5D300204849086005F00F0141F2EC
:100C5000482040FA01F010F0010F03D14149284625
:100C6000FFF77EFE2046F0BDF0B506460D46144661
:100C700006F00F00022101EB80003B490860254887
:100C8000C0F824424FF0000706E0286838490860A1
:100C900005F1040507F1010704F10300B7EB900F1C
:100CA000F3D300203049086032493046FFF758FE40
:100CB0002046F0BD00B53048FFF72CFE2F48FFF767
:100CC00072FE03462D48FFF76EFE43EA00231846E6
:100CD00000BD2DE9F0471048D0F8009019F0080F3A
:100CE00057D008200A4908601748FFF713FE244828
:100CF000FFF759FE054615F0100F03D0FFF778FEF9
:100D0000FFF7FCF915F0080F42D015F0040F39E099
:100D100008C2005000C0005000C2005014C2005071
:100D20000005D00048C2005038C2005000C0024048
:100D3000CFFFFFCF10000020C4C00F4000C00F4005
:100D4000F4CF0050F8CF00500005FE000400001062
:100D5000000101000005D80044C200500005400019
:100D6000000120000005F20028C2005020C20050FF
:100D70001CC200500005FA000005F5000002F50055
:100D80000002FE0002D0FFF7ACFE01E0FFF7AAFE72
:100D90004CE019F0040F48D04FF0000824480768D1
:100DA0004FF000043BE0474500D13AE00120A0406D
:100DB000384232D00120A04040EA080866080120ED
:100DC000A0401C49086000BF1B48006810F0200FBD
:100DD000FAD01A48056814F0010F15D154B915F06E
:100DE000040F07D01648006820B11548016801209B
:100DF000884713E0124850F8260070B1104850F8A8
:100E000026100220884708E00D4850F8260020B13F
:100E10000B4850F826100320884700BF641C202C84
:100E2000C1D300BF04200749086000BFBDE8F087B8
:100E300030C2005038C2005000C2005014C20050EE
:100E40002023000008C2005010B50020F8490870A7
:100E50000220F84908700120F74908700020F54980
:100E60004870F5494870F3498870F3498870F14932
:100E7000C870F149C870EF490871EF490871ED4930
:100E80004871ED494871EB498871EB498871E9492E
:100E9000C871E949C871E7490872E7490872E7482B
:100EA000006810B90120E3490871E548006820B9DD
:100EB000E4480078C043E3490870E348006810B98B
:100EC0001A20DD490871E148006810B91620DA4996
:100ED0000871DF48006810B90420D7494871DD481F
:100EE000006810B90720D4494871DB48006810B980
:100EF000E120D1494870D948006810B92C20CE496A
:100F00008871D748006810B9E020CB494870CB48B9
:100F10001838006810B90A20C7494871C748143802
:100F2000006810B90920C4494871C44810380068E5
:100F300010B91520C0494871CA48006828B9BD4891
:100F4000407840F00100BB494870C748006828B9A4
:100F5000B848407840F00200B6494870B7480C38AD
:100F6000006810B90120B3490871B4480838006816
:100F700010B9FB20AF490871B248007858BBBB4993
:100F800088684FF08441FFF771F9044600F03AFD9C
:100F9000B7490870B54908684FF08441FFF766F912
:100FA000044600F02FFDB3490870B3480078B049FB
:100FB0000978401A9F498870AE480078AF4909788F
:100FC000401A9C49C870AA480078AB490870A948E3
:100FD0000078AA49087010BD002017E00121814067
:100FE000A74A1278114208D0A649496DA64A52F87C
:100FF00020201143A34A516507E0A249496DA24A46
:1010000052F8202091439F4A5165401C0828E5DB97
:101010007047FFF775F9FFF711FD0120FFF753FD4A
:101020009A48006840F400409949C1F8C4004FF064
:101030000000944908704FF4E13100F071FA9DE12D
:10104000944800780028FAD000209249087092480D
:1010500000785528F3D190484078512804D0522880
:101060007ED053287DD12BE18B4989788A4AD2786A
:1010700041EA0220FFF730F980460022874B00F05A
:1010800052FC06460022864B00F0DBFB044600F0D3
:10109000E6FC844908600868834900F0FDFC07D23B
:1010A000804908684FF0844100F01EFB7D490860CC
:1010B00079490979784A527941EA0220FFF70CF917
:1010C00080460022754B00F02EFC06460022744B31
:1010D00000F0B7FB044600F0C2FC72494860486863
:1010E000714900F0D9FC07D26E4948684FF084413D
:1010F00000F0FAFA6B49486067498979664AD27903
:1011000041EA0220FFF7E8F880460022634B00F036
:101110000AFC06460022624B00F093FB044600F0F6
:101120009EFC6049886088685F4900F0B5FC07D282
:101130005C4988684FF0844100F0D6FA59498860CC
:101140005549097A544A527A41EA0220FFF7C4F815
:1011500080460022554B00F0E6FB0646002201E0E7
:1011600009E00AE1524B00F0C5FA044600F05EFCCB
:101170005049087001E148498978474AD27841EAE4
:101180000220FFF7A9F880460022444B00F0CBFB79
:1011900006460022484B00F054FB044600F05FFC7A
:1011A000464908603C4909793B4A527941EA0220A4
:1011B000FFF792F880460022384B00F0B4FB064659
:1011C00000223D4B00F03DFB044600F048FC3B494B
:1011D000486031498979304AD27941EA0220FFF7E3
:1011E0007BF8064600222D4B00F09DFB04460022B2
:1011F000314B00F026FB804600F031FC2F4988601F
:101200002549097A244A527A41EA0220FFF764F814
:1012100080460022254B00F086FB06460022244B28
:1012200000F068FA044600F001FC22490870A4E0CE
:10123000640000108900001080000010A80A382304
:101240009C0238233B00001080023823840238239C
:10125000AC023823A8023823D0023823D402382322
:10126000D8023823A0023823A4023823AC0000108F
:101270003700001039000010380000103A0000104C
:101280006500001000C0092044000010C4C00F40D9
:1012900000C00F4074000010B80000100000E040D3
:1012A000000030409400001000008841004075406C
:1012B000002042404000001000409F40A00000106D
:1012C0002F4989782E4AD27841EA0220FFF704F8A4
:1012D000064600222B4B00F026FB044600222A4B38
:1012E00000F0AFFA804600F0BAFB284908602449B4
:1012F0000979234A527941EA0220FEF7EDFF804640
:101300000022204B00F00FFB064600221E4B00F08F
:1013100098FA044600F0A3FB1C49486018498979F3
:10132000174AD27941EA0220FEF7D6FF064600228C
:10133000144B00F0F8FA04460022134B00F081FA37
:10134000804600F08CFB114988600D49097A0C4AEF
:10135000527A41EA0220FEF7BFFF064600220C4BFC
:1013600000F0E1FA044600220A4B00F0C3F980467F
:1013700000F05CFB0849087000BF00BF60E6000099
:10138000B80000100000E04000806640AC00001093
:1013900000407540002042404000001030B500BFC2
:1013A0009A4B9B68D8B2401000F00700032829D15F
:1013B000964B197D11F09E0F04D0954B1960934BFD
:1013C0001A7830BD11F0010F52D0904B1B78914C20
:1013D000914D2D686355904B1B6823B923461B78AC
:1013E000552B00D0EDE78C4B1B685B1C8A4C2360AF
:1013F00023461B680B2B3BD1002323600123874C22
:10140000237035E002281CD1804B1B78814C824D23
:101410002D686355804B1B6823B923461B78552BD9
:1014200000D0CEE77C4B1B685B1C7B4C23602346C3
:101430001B680B2B1CD1002323600123774C2370E6
:1014400016E0062806D1724B1B6843F48073704C7B
:1014500023600DE001280BD16C4B197D11F0200F9A
:1014600003D001236E4C237002E000236C4C2370E8
:1014700000BFA6E730B500BF6A4B9B68D8B24010EA
:1014800000F0070003281ED1664B197D11F09E0F56
:1014900004D0654B1960634B1A7830BD11F0010F11
:1014A0003CD0604B1B78614C614D2D686355604B9F
:1014B0001B685B1C5E4C236023461B68402B2DD1B0
:1014C000002323602AE0022811D1564B1C78574B89
:1014D000574D2D685C55564B1B685B1C544C236064
:1014E00023461B68402B19D10023236016E00628F1
:1014F00006D14D4B1B6843F480734B4C23600DE0C9
:1015000001280BD1474B197D11F0200F03D0012387
:10151000484C237002E00023464C237000BFBCE718
:1015200070B505460E46FDB950204349086083203A
:10153000364908734148B0FBF6F4002008710D20CD
:101540000870C1203E4908704FF003002F4908730E
:101550004FF0070008724FF0050000F04AF807202E
:101560002A494860012070BD012D1AD13248006916
:1015700040F00A003049086183202A4908732F4847
:10158000B0FBF6F4200A08710C70032008730720E2
:101590000872062000F02DF807202249486001203B
:1015A000E1E70020DFE710B588B90DE000BF1C4B74
:1015B0001B7813F0010FFAD00B78144C2370002322
:1015C000174C2370491C521E002AEFD110E00DE089
:1015D00000BF184B1B7813F0010FFAD00B78114C99
:1015E00023700023134C2370491C521E002AEFD194
:1015F00010BD00F01F020121914042094FF0E0238D
:1016000003EB8202C2F800117047000000C00040E6
:1016100078000010B80000106C000010740000107A
:1016200068000010000001407C000010F80000106D
:10163000700000106900001000C0024084D717003D
:1016400028C00040F0B480EA0102D40F4200B2EB9F
:10165000410F02D20246084611464A0042D0C30D4D
:10166000DDB2C1F3C752AD1A202D35DAC1F3160130
:1016700041F4000204B15242C5F1200602FA06F11B
:101680002A411044B3EBD05F23D0C4B1012DA0EBAD
:10169000C35009DCF0BC4FF0004202EAC35200F52F
:1016A0000000DBB200F03CBA400000F1807000EBBB
:1016B000C350A0F1807040EAD170490009E04908A8
:1016C00041EAC071A0EBC35000F50000400800EBF8
:1016D000C350F0BC00F01BBA6142012202EB410191
:1016E000001BF6E7F0BC704781F00041AAE780F0EC
:1016F0000040A7E72DE9FE4F804681EA0300C00FB6
:101700000C46009021F0004123F00045B8EB0200A8
:10171000A94105D24046214690461C460B4602464A
:1017200023F00040104304D14046214603B0BDE8F9
:10173000F08F270DC7F30A00C3F30A510290401A35
:101740000190402866DAC3F3130040F4801B009830
:10175000924620B10023D2EB030A63EB0B0B0198F6
:101760005946C0F14002504600F0A0F906460D4629
:1017700050465946019A00F0B8F910EB0800614153
:10178000002487EA115284EAE7731A433BD0009A97
:101790003AB3019A012A4FEA075210DC001B61EBB1
:1017A00002014FF0004202EA0752CDE90042001C5C
:1017B00041F5801132462B4600F0ECF9B6E7001BEC
:1017C00061EB0201001C41F5801300185B412018F9
:1017D000A2F5001747EB030140EAD570B6196D4139
:1017E00011E06D084FEA360645EAC0754FEA075228
:1017F000001B61EB0201001C41F5801149084FEA12
:1018000030000019514132462B4603B0BDE8F04F7D
:1018100000F0B3B90098012240000023D0EB02028F
:1018200063EBE073009821464FEAE074B8EB0000E8
:1018300061EB0401E9E783F000435BE781F00041DD
:1018400058E72DE9FE4F81EA030404F0004421F03B
:10185000004100944FF0000B23F0004350EA0104D4
:1018600002D052EA030404D10020014603B0BDE8CF
:10187000F08FC3F30A54C1F30A552C44A4F2F33495
:101880000194A0FB0254C1F3130141F48011C3F38E
:10189000130343F4801301FB024400FB034E840A4C
:1018A000970A44EA815447EA8357A4FB07680295E4
:1018B0008D0A05FB07854FEA932C04FB0C54270582
:1018C000029D4FEA065847EA1637B5EB08056EEB5E
:1018D000070C870E920E47EA811742EA8312A7FB94
:1018E0000201B6EB0B0164EB00042B0D43EA0C3351
:1018F0005E1844EB1C50DA465146E7FB0201C5F383
:1019000013044FEA0B3343EA14534FEA0432019CA9
:1019100043EA0603A4F10C040294009CCDE900B450
:1019200000F038F9A2E72DE9F04D81EA030404F054
:10193000004B21F0004514464FF0000A23F000410F
:1019400050EA050220D054EA01021DD0C5F30A571F
:101950000246C5F31303C1F31300C1F30A5640F462
:10196000801543F48013A7EB0608101BD64608F237
:10197000FD3873EB050002D308F1010801E092186D
:101980005B41B8F1000F03DA00200146BDE8F08D9D
:1019900000204FF48011064684460EE0171B73EBBF
:1019A000050705D3121B63EB050306434CEA010C44
:1019B00049084FEA300092185B4150EA0107EDD127
:1019C00052EA030012D082EA040083EA05010843C8
:1019D00003D100224FF0004308E0101BAB4102D2BC
:1019E0000122002302E06FF0010253101AEB0600FF
:1019F0004CEB085110EB0A0041EB0B01BDE8F04D38
:101A000000F0BBB820F00040C10DC0F3160040F458
:101A100000007F2901DA00207047962903DCC1F11C
:101A20009601C8407047963988407047C1F30A5202
:101A300010B5C1F3130140F2FF3341F480119A4213
:101A400001DA002010BD40F233439A42A2F2334241
:101A500003DC524200F039F810BD904010BD01F097
:101A6000004330B421F0004150EA010206D00A0DD3
:101A7000A2F56072C1F31301002A02DC30BC002021
:101A80007047440F44EAC104C100E01830BC00EBC9
:101A9000C25000F03CB80000002801DBC0F100405B
:101AA000002901DBC1F1004188427047202A04DB94
:101AB000203A00FA02F1002070479140C2F1200361
:101AC00020FA03F3194390407047202A04DB203AA0
:101AD00021FA02F00021704721FA02F3D040C2F14E
:101AE00020029140084319467047202A06DBCB1795
:101AF000203A41FA02F043EAE07306E041FA02F3C9
:101B0000D040C2F120029140084319467047002995
:101B1000A8BF7047401C490008BF20F00100704773
:101B200010B4B0FA80FC00FA0CF050EA010404BFD3
:101B300010BC704749B1CCF1200421FA04F411FA29
:101B40000CF118BF012121430843A3EB0C01CB1D6D
:101B50000106000A002BBEBF002010BC704700EB3E
:101B6000C35010440029A4BF10BC7047401C49005A
:101B700008BF20F0010010BC704710B5002B08DA38
:101B8000401C41F1000192185B411A4301D120F041
:101B9000010010BD2DE9F04D92469B4611B1B1FAFE
:101BA00081F202E0B0FA80F220329046FFF77EFF29
:101BB00004460F4640EA0A0041EA0B0153465A46E2
:101BC000084303D120463946BDE8F08D114653EA5B
:101BD000010015D0C8F140025046FFF776FF0546D8
:101BE0000E46504659464246FFF760FF084301D073
:101BF000012000E00020054346EAE0762C4337430D
:101C00000A984FEA4453A0EB08004FEAD4240A3064
:101C10004FF0000244EA47544FEAD72502D500208E
:101C20000146D1E7010510196941DDE908450019B0
:101C30006941BDE8F04DA0E7064C074D06E0E068BD
:101C400040F0010394E8070098471034AC42F6D303
:101C5000FEF740FA602300008023000010B53948E9
:101C6000007810F01F0002D001285FD139E035481C
:101C7000C078012804D0022807D003282DD118E00D
:101C80003148324C2060122229E03149002304E01F
:101C9000087808B1488801445B1C2A48807898423B
:101CA000F6D1087808B9002010BD284801604A889C
:101CB00015E02849002304E0087808B108780144B9
:101CC0005B1C204880789842F6D1087808B900203B
:101CD000EAE71E4801600A7801E00020E4E700BF5F
:101CE00026E01848C078212804D022280DD02328C7
:101CF00018D115E01348007908B10020D4E7144842
:101D00001230124C206009220EE00E48007908B112
:101D10000020C9E710480D4C20601048028803E0FD
:101D20000020C1E70020BFE700BF01E00020BBE7C3
:101D300000BF06488088904201D904488280012073
:101D4000B2E70000280000108622000020000010EA
:101D500098220000BA2200000C2200008422000019
:101D60002748007810F01F0004D0012806D0022870
:101D700041D116E02348244B18603EE02348007808
:101D800060B11F480079224B1B78984206DA002088
:101D9000204B188018461C4B186001E0002070474B
:101DA0002BE01748007900F08F0111F0800F05D06B
:101DB00001F00F034FF48030984001E0012088408B
:101DC00002461248007810B911F00F0F10D11248D6
:101DD000006810420CD011480068104201D0012068
:101DE00000E000200B4B18801846074B186001E0FC
:101DF0000020D4E701E00020D1E700BF0120CEE7BA
:101E0000280000100400001020000010070000103F
:101E10001400001016000010080000100C00001044
:101E200070B506463348007810F01F0004D0012832
:101E30001DD0022858D11CE02E484088012813D11B
:101E400046B1FEF75BFE2C48008840F002002A49AC
:101E500008800BE00020FEF751FE2748008820F0A4
:101E600002002549088001E0002070BD3EE000200E
:101E7000FBE72048007900F08F0414F0800F05D0B4
:101E800004F00F014FF48030884001E00120A040B1
:101E900005461A48007820B314F00F0F21D01848D7
:101EA000006828421DD013484088C0B946B120467A
:101EB000FEF789FE1348006828431249086012E0C3
:101EC00011480068284201D00120CEE72046FEF7E5
:101ED00087FE0C480068A8430A49086003E0002018
:101EE000C3E70020C1E701E00020BEE700BF0120FA
:101EF000BBE70000280000100400001007000010DD
:101F0000080000100C000010100000102DE9F04136
:101F100000266248007810F01F0F7DD15F4880785E
:101F200000287AD05E4D7EE06878022804D004282C
:101F300051D0052873D150E0687958498978884292
:101F400045D1564880785749087028795649087015
:101F5000002403E0002055490855641C002CF9D0EA
:101F6000012414E00120A04051490968084202D030
:101F70002046FEF70EFE4FF48030A0404C49096821
:101F8000084203D044F08000FEF703FE641C102CCE
:101F9000E8D34FF001104649086000204549086029
:101FA000454908600120FEF7AAFDE87910F0400FCE
:101FB00006D04248008840F001004049088009E00E
:101FC0003E48008820F001003C49088002E0688813
:101FD000054428E023E0EE7821E0E6B9A87800F097
:101FE0008F0414F0800F05D004F00F014FF48030FF
:101FF000884001E00120A04007462D480068384392
:102000002B4908602846FEF795FD2046FEF7B4FDF3
:102010002046FEF7CBFD01E03BE009E000BF00BF3A
:102020002878054400BF287800287FF47DAF26E09B
:1020300000201C490870012414E00120A0401C4924
:102040000968084202D02046FEF7A3FD4FF4803015
:10205000A04017490968084203D044F08000FEF709
:1020600098FD641C102CE8D34FF001101049086053
:1020700000201049086010490860FEF740FD07483D
:10208000807808490978884202D00020BDE8F081B4
:1020900001E00020FAE700BF0120F7E72800001068
:1020A0009822000007000010140000101500001016
:1020B000080000100C0000101000001004000010B8
:1020C0002DE9F05F4FF000080026B346B1464248C4
:1020D000007800F01F00012878D14048007810B93E
:1020E0000020BDE8F09F4FF0000A3D4C69E06078A9
:1020F000022804D004280BD005285ED11DE06079A9
:1021000036490978884202D06088044459E054E096
:1021100094F80280E6784FF000092F480079404596
:102120000AD12D488078B04206D14FF0010A2D48DF
:1021300010F808B000F808603FE0274800794045F3
:102140003AD1A07800F08F0717F0800F05D007F084
:102150000F014FF48030884001E00120B84005466F
:102160001D488078B04215D11F48006828431E4999
:1021700008601E480068A8431C4908602046FEF716
:10218000D9FC3846FEF7F8FC3846FEF70FFD49EA61
:10219000050911E05E450FD119EA050F0CD112486F
:1021A0000068A8431049086010480068A8430F4918
:1021B00008603846FEF7EDFC00BF00BF20780444FD
:1021C00000BF2078002892D102E0FFE7002088E7D6
:1021D00000BF504685E700002800001007000010EF
:1021E0009822000015000010080000100C000010DC
:1021F00002E008C8121F08C1002AFAD17047002067
:1022000001E001C1121F002AFBD170470501090638
:10221000A1018501050719E029E7150025017501D0
:1022200095088102950175088103950575010508DA
:102230001901290591029501750391039506750809
:10224000150025FF0507190029658100C005010952
:1022500002A10185020901A100050919012903153F
:10226000002501950375018102950175058103051E
:10227000010930093109381581257F7508950381D9
:1022800006C0C00077001201000200000008290803
:10229000172000020102030109022200010100804F
:1022A00032090400000103000104092100010001BA
:1022B00022770007058103200008040309041C039A
:1022C0004B00650069006C00200053006F00660041
:1022D0007400770061007200650022034B00650006
:1022E00069006C0020004D004300420031003700BF
:1022F0003000300020004800490044001A0330003C
:10230000300030003100410030003000300030003B
:10231000300030003000080348004900440000004D
:10232000070600004F010000000000000000000050
:10233000000000000000000000000000000000009D
:10234000000000000000000000000000000000008D
:10235000000000000000000000000000000000007D
:10236000802300000000001080000000F021000029
:102370000024000080000010B8020000FE210000D0
:1023800000093D0000000000000000000000000007
:10239000000000000000000000000000000000003D
:1023A000000000000000000000000000000000002D
:1023B000000000000000000000000000000000001D
:1023C0000000000001000000020000000400000006
:1023D0000800000010000000200000004000000085
:1023E000800000000000000001010000000000006B
:1023F00000000000000000000000000000000000DD
:04000005000000CD2A
:00000001FF
